{
  "contractName": "CoffeeHouse",
  "abi": [
    {
      "constant": true,
      "inputs": [],
      "name": "frozen",
      "outputs": [
        {
          "name": "",
          "type": "bool"
        }
      ],
      "payable": false,
      "stateMutability": "view",
      "type": "function",
      "signature": "0x054f7d9c"
    },
    {
      "constant": true,
      "inputs": [
        {
          "name": "",
          "type": "address"
        }
      ],
      "name": "registeredUsers",
      "outputs": [
        {
          "name": "",
          "type": "bool"
        }
      ],
      "payable": false,
      "stateMutability": "view",
      "type": "function",
      "signature": "0x0e50cee5"
    },
    {
      "constant": false,
      "inputs": [],
      "name": "renounceOwnership",
      "outputs": [],
      "payable": false,
      "stateMutability": "nonpayable",
      "type": "function",
      "signature": "0x715018a6"
    },
    {
      "constant": true,
      "inputs": [],
      "name": "owner",
      "outputs": [
        {
          "name": "",
          "type": "address"
        }
      ],
      "payable": false,
      "stateMutability": "view",
      "type": "function",
      "signature": "0x8da5cb5b"
    },
    {
      "constant": true,
      "inputs": [],
      "name": "isOwner",
      "outputs": [
        {
          "name": "",
          "type": "bool"
        }
      ],
      "payable": false,
      "stateMutability": "view",
      "type": "function",
      "signature": "0x8f32d59b"
    },
    {
      "constant": true,
      "inputs": [
        {
          "name": "",
          "type": "address"
        }
      ],
      "name": "users",
      "outputs": [
        {
          "name": "name",
          "type": "string"
        },
        {
          "name": "userAddress",
          "type": "address"
        }
      ],
      "payable": false,
      "stateMutability": "view",
      "type": "function",
      "signature": "0xa87430ba"
    },
    {
      "constant": true,
      "inputs": [
        {
          "name": "",
          "type": "uint256"
        }
      ],
      "name": "items",
      "outputs": [
        {
          "name": "name",
          "type": "string"
        },
        {
          "name": "itemId",
          "type": "uint256"
        },
        {
          "name": "price",
          "type": "uint256"
        }
      ],
      "payable": false,
      "stateMutability": "view",
      "type": "function",
      "signature": "0xbfb231d2"
    },
    {
      "constant": true,
      "inputs": [],
      "name": "itemsCount",
      "outputs": [
        {
          "name": "",
          "type": "uint256"
        }
      ],
      "payable": false,
      "stateMutability": "view",
      "type": "function",
      "signature": "0xe2c03ace"
    },
    {
      "constant": false,
      "inputs": [
        {
          "name": "newOwner",
          "type": "address"
        }
      ],
      "name": "transferOwnership",
      "outputs": [],
      "payable": false,
      "stateMutability": "nonpayable",
      "type": "function",
      "signature": "0xf2fde38b"
    },
    {
      "inputs": [],
      "payable": false,
      "stateMutability": "nonpayable",
      "type": "constructor",
      "signature": "constructor"
    },
    {
      "anonymous": false,
      "inputs": [
        {
          "indexed": false,
          "name": "amountToRefund",
          "type": "uint256"
        }
      ],
      "name": "RefundAmount",
      "type": "event",
      "signature": "0xbed0142a4ddc0f9da2ce14c2105438b4ce6bcd9c383b9d7ce6c4bf616acf993d"
    },
    {
      "anonymous": false,
      "inputs": [
        {
          "indexed": false,
          "name": "number",
          "type": "uint256"
        }
      ],
      "name": "ItemBought",
      "type": "event",
      "signature": "0x7f7e375fbeaef0d6ebfc53af15b7aeed1d704e3424f34ef67e914b1f68f8c8ef"
    },
    {
      "anonymous": false,
      "inputs": [
        {
          "indexed": false,
          "name": "itemId",
          "type": "uint256"
        }
      ],
      "name": "itemAdded",
      "type": "event",
      "signature": "0xd845909ec39afd39d384cbd1befad363d4d67cd9ee5853efbc65ca929044f7c5"
    },
    {
      "anonymous": false,
      "inputs": [
        {
          "indexed": false,
          "name": "_address",
          "type": "address"
        }
      ],
      "name": "userCreated",
      "type": "event",
      "signature": "0xa22187ec83aa1b90e4efbaa4f24ce6b70a007f97923b5878c0fb8026c2febe79"
    },
    {
      "anonymous": false,
      "inputs": [
        {
          "indexed": false,
          "name": "_address",
          "type": "address"
        }
      ],
      "name": "userUpdated",
      "type": "event",
      "signature": "0x0d4f95fb5937be8ecc760da6c9b823e799e3f61b77b982245dc5fe3bbbd10596"
    },
    {
      "anonymous": false,
      "inputs": [
        {
          "indexed": false,
          "name": "_address",
          "type": "address"
        }
      ],
      "name": "userDeleted",
      "type": "event",
      "signature": "0xc21b9cfcceff9f2d82efde7cd64d3fe7bfd7f14b9b0020ed54eb6ae56056e9ac"
    },
    {
      "anonymous": false,
      "inputs": [],
      "name": "toggleFreeze",
      "type": "event",
      "signature": "0x34fc2591fd4156473f33eff25bad9578d20b364af65e560c8a97cfe094abf5c6"
    },
    {
      "anonymous": false,
      "inputs": [
        {
          "indexed": true,
          "name": "previousOwner",
          "type": "address"
        },
        {
          "indexed": true,
          "name": "newOwner",
          "type": "address"
        }
      ],
      "name": "OwnershipTransferred",
      "type": "event",
      "signature": "0x8be0079c531659141344cd1fd0a4f28419497f9722a3daafe3b4186f6b6457e0"
    },
    {
      "constant": false,
      "inputs": [
        {
          "name": "_name",
          "type": "string"
        },
        {
          "name": "_price",
          "type": "uint256"
        }
      ],
      "name": "addItem",
      "outputs": [
        {
          "name": "",
          "type": "bool"
        }
      ],
      "payable": false,
      "stateMutability": "nonpayable",
      "type": "function",
      "signature": "0x62d6bbdf"
    },
    {
      "constant": false,
      "inputs": [
        {
          "name": "itemId",
          "type": "uint256"
        }
      ],
      "name": "buyItem",
      "outputs": [
        {
          "name": "",
          "type": "bool"
        }
      ],
      "payable": true,
      "stateMutability": "payable",
      "type": "function",
      "signature": "0xe7fb74c7"
    },
    {
      "constant": true,
      "inputs": [
        {
          "name": "itemId",
          "type": "uint256"
        },
        {
          "name": "sender",
          "type": "address"
        }
      ],
      "name": "getAssetItemCount",
      "outputs": [
        {
          "name": "number",
          "type": "uint256"
        }
      ],
      "payable": false,
      "stateMutability": "view",
      "type": "function",
      "signature": "0xbc00409f"
    },
    {
      "constant": false,
      "inputs": [
        {
          "name": "_name",
          "type": "string"
        }
      ],
      "name": "createUser",
      "outputs": [
        {
          "name": "",
          "type": "bool"
        }
      ],
      "payable": false,
      "stateMutability": "nonpayable",
      "type": "function",
      "signature": "0x507ffba5"
    },
    {
      "constant": false,
      "inputs": [
        {
          "name": "_name",
          "type": "string"
        }
      ],
      "name": "updateUser",
      "outputs": [
        {
          "name": "",
          "type": "bool"
        }
      ],
      "payable": false,
      "stateMutability": "nonpayable",
      "type": "function",
      "signature": "0x0b4f12f6"
    },
    {
      "constant": false,
      "inputs": [],
      "name": "deleteUser",
      "outputs": [
        {
          "name": "status",
          "type": "bool"
        }
      ],
      "payable": false,
      "stateMutability": "nonpayable",
      "type": "function",
      "signature": "0x026ff05e"
    }
  ],
  "bytecode": "0x608060405260008060146101000a81548160ff02191690831515021790555034801561002a57600080fd5b50336000806101000a81548173ffffffffffffffffffffffffffffffffffffffff021916908373ffffffffffffffffffffffffffffffffffffffff1602179055506000809054906101000a900473ffffffffffffffffffffffffffffffffffffffff1673ffffffffffffffffffffffffffffffffffffffff16600073ffffffffffffffffffffffffffffffffffffffff167f8be0079c531659141344cd1fd0a4f28419497f9722a3daafe3b4186f6b6457e060405160405180910390a3611b54806100f66000396000f3fe6080604052600436106100db576000357c0100000000000000000000000000000000000000000000000000000000900463ffffffff168063026ff05e146100e0578063054f7d9c1461010f5780630b4f12f61461013e5780630e50cee51461021e578063507ffba51461028757806362d6bbdf14610367578063715018a6146104515780638da5cb5b146104685780638f32d59b146104bf578063a87430ba146104ee578063bc00409f146105eb578063bfb231d21461065a578063e2c03ace1461071c578063e7fb74c714610747578063f2fde38b1461078d575b600080fd5b3480156100ec57600080fd5b506100f56107de565b604051808215151515815260200191505060405180910390f35b34801561011b57600080fd5b506101246109dc565b604051808215151515815260200191505060405180910390f35b34801561014a57600080fd5b506102046004803603602081101561016157600080fd5b810190808035906020019064010000000081111561017e57600080fd5b82018360208201111561019057600080fd5b803590602001918460018302840111640100000000831117156101b257600080fd5b91908080601f016020809104026020016040519081016040528093929190818152602001838380828437600081840152601f19601f8201169050808301925050505050505091929192905050506109ef565b604051808215151515815260200191505060405180910390f35b34801561022a57600080fd5b5061026d6004803603602081101561024157600080fd5b81019080803573ffffffffffffffffffffffffffffffffffffffff169060200190929190505050610c1f565b604051808215151515815260200191505060405180910390f35b34801561029357600080fd5b5061034d600480360360208110156102aa57600080fd5b81019080803590602001906401000000008111156102c757600080fd5b8201836020820111156102d957600080fd5b803590602001918460018302840111640100000000831117156102fb57600080fd5b91908080601f016020809104026020016040519081016040528093929190818152602001838380828437600081840152601f19601f820116905080830192505050505050509192919290505050610c3f565b604051808215151515815260200191505060405180910390f35b34801561037357600080fd5b506104376004803603604081101561038a57600080fd5b81019080803590602001906401000000008111156103a757600080fd5b8201836020820111156103b957600080fd5b803590602001918460018302840111640100000000831117156103db57600080fd5b91908080601f016020809104026020016040519081016040528093929190818152602001838380828437600081840152601f19601f82011690508083019250505050505050919291929080359060200190929190505050610f8d565b604051808215151515815260200191505060405180910390f35b34801561045d57600080fd5b50610466611102565b005b34801561047457600080fd5b5061047d6111d4565b604051808273ffffffffffffffffffffffffffffffffffffffff1673ffffffffffffffffffffffffffffffffffffffff16815260200191505060405180910390f35b3480156104cb57600080fd5b506104d46111fd565b604051808215151515815260200191505060405180910390f35b3480156104fa57600080fd5b5061053d6004803603602081101561051157600080fd5b81019080803573ffffffffffffffffffffffffffffffffffffffff169060200190929190505050611254565b60405180806020018373ffffffffffffffffffffffffffffffffffffffff1673ffffffffffffffffffffffffffffffffffffffff168152602001828103825284818151815260200191508051906020019080838360005b838110156105af578082015181840152602081019050610594565b50505050905090810190601f1680156105dc5780820380516001836020036101000a031916815260200191505b50935050505060405180910390f35b3480156105f757600080fd5b506106446004803603604081101561060e57600080fd5b8101908080359060200190929190803573ffffffffffffffffffffffffffffffffffffffff169060200190929190505050611330565b6040518082815260200191505060405180910390f35b34801561066657600080fd5b506106936004803603602081101561067d57600080fd5b8101908080359060200190929190505050611409565b6040518080602001848152602001838152602001828103825285818151815260200191508051906020019080838360005b838110156106df5780820151818401526020810190506106c4565b50505050905090810190601f16801561070c5780820380516001836020036101000a031916815260200191505b5094505050505060405180910390f35b34801561072857600080fd5b506107316114cb565b6040518082815260200191505060405180910390f35b6107736004803603602081101561075d57600080fd5b81019080803590602001909291905050506114d1565b604051808215151515815260200191505060405180910390f35b34801561079957600080fd5b506107dc600480360360208110156107b057600080fd5b81019080803573ffffffffffffffffffffffffffffffffffffffff1690602001909291905050506118a2565b005b6000600460003373ffffffffffffffffffffffffffffffffffffffff1673ffffffffffffffffffffffffffffffffffffffff16815260200190815260200160002060009054906101000a900460ff1615156108a1576040517f08c379a00000000000000000000000000000000000000000000000000000000081526004018080602001828103825260138152602001807f55736572206e6f7420726567697374657265640000000000000000000000000081525060200191505060405180910390fd5b600360003373ffffffffffffffffffffffffffffffffffffffff1673ffffffffffffffffffffffffffffffffffffffff168152602001908152602001600020600080820160006108f191906119bb565b6001820160006101000a81549073ffffffffffffffffffffffffffffffffffffffff021916905550506000600460003373ffffffffffffffffffffffffffffffffffffffff1673ffffffffffffffffffffffffffffffffffffffff16815260200190815260200160002060006101000a81548160ff0219169083151502179055507fc21b9cfcceff9f2d82efde7cd64d3fe7bfd7f14b9b0020ed54eb6ae56056e9ac33604051808273ffffffffffffffffffffffffffffffffffffffff1673ffffffffffffffffffffffffffffffffffffffff16815260200191505060405180910390a16001905090565b600060149054906101000a900460ff1681565b60008060149054906101000a900460ff16151515610a9b576040517f08c379a00000000000000000000000000000000000000000000000000000000081526004018080602001828103825260308152602001807f5468697320616374696f6e206973206e6f7420616c6c6f77656420617320636f81526020017f6e74726163742069732066726f7a656e0000000000000000000000000000000081525060400191505060405180910390fd5b600460003373ffffffffffffffffffffffffffffffffffffffff1673ffffffffffffffffffffffffffffffffffffffff16815260200190815260200160002060009054906101000a900460ff161515610b5c576040517f08c379a00000000000000000000000000000000000000000000000000000000081526004018080602001828103825260138152602001807f55736572206e6f7420726567697374657265640000000000000000000000000081525060200191505060405180910390fd5b81600360003373ffffffffffffffffffffffffffffffffffffffff1673ffffffffffffffffffffffffffffffffffffffff1681526020019081526020016000206000019080519060200190610bb2929190611a03565b507f0d4f95fb5937be8ecc760da6c9b823e799e3f61b77b982245dc5fe3bbbd1059633604051808273ffffffffffffffffffffffffffffffffffffffff1673ffffffffffffffffffffffffffffffffffffffff16815260200191505060405180910390a160019050919050565b60046020528060005260406000206000915054906101000a900460ff1681565b60008060149054906101000a900460ff16151515610ceb576040517f08c379a00000000000000000000000000000000000000000000000000000000081526004018080602001828103825260308152602001807f5468697320616374696f6e206973206e6f7420616c6c6f77656420617320636f81526020017f6e74726163742069732066726f7a656e0000000000000000000000000000000081525060400191505060405180910390fd5b600460003373ffffffffffffffffffffffffffffffffffffffff1673ffffffffffffffffffffffffffffffffffffffff16815260200190815260200160002060009054906101000a900460ff16151515610dad576040517f08c379a000000000000000000000000000000000000000000000000000000000815260040180806020018281038252601a8152602001807f5573657220697320616c7265616479207265676973746572656400000000000081525060200191505060405180910390fd5b60408051908101604052808381526020013373ffffffffffffffffffffffffffffffffffffffff16815250600360003373ffffffffffffffffffffffffffffffffffffffff1673ffffffffffffffffffffffffffffffffffffffff1681526020019081526020016000206000820151816000019080519060200190610e33929190611a83565b5060208201518160010160006101000a81548173ffffffffffffffffffffffffffffffffffffffff021916908373ffffffffffffffffffffffffffffffffffffffff1602179055509050506001600460003373ffffffffffffffffffffffffffffffffffffffff1673ffffffffffffffffffffffffffffffffffffffff16815260200190815260200160002060006101000a81548160ff0219169083151502179055507fa22187ec83aa1b90e4efbaa4f24ce6b70a007f97923b5878c0fb8026c2febe7933604051808273ffffffffffffffffffffffffffffffffffffffff1673ffffffffffffffffffffffffffffffffffffffff16815260200191505060405180910390a1600460003373ffffffffffffffffffffffffffffffffffffffff1673ffffffffffffffffffffffffffffffffffffffff16815260200190815260200160002060009054906101000a900460ff169050919050565b6000610f976111fd565b1515610fa257600080fd5b600060149054906101000a900460ff1615151561104d576040517f08c379a00000000000000000000000000000000000000000000000000000000081526004018080602001828103825260308152602001807f5468697320616374696f6e206973206e6f7420616c6c6f77656420617320636f81526020017f6e74726163742069732066726f7a656e0000000000000000000000000000000081525060400191505060405180910390fd5b606060405190810160405280848152602001600154815260200183815250600260006001548152602001908152602001600020600082015181600001908051906020019061109c929190611a83565b5060208201518160010155604082015181600201559050507fd845909ec39afd39d384cbd1befad363d4d67cd9ee5853efbc65ca929044f7c56001546040518082815260200191505060405180910390a160018054016001819055506001905092915050565b61110a6111fd565b151561111557600080fd5b600073ffffffffffffffffffffffffffffffffffffffff166000809054906101000a900473ffffffffffffffffffffffffffffffffffffffff1673ffffffffffffffffffffffffffffffffffffffff167f8be0079c531659141344cd1fd0a4f28419497f9722a3daafe3b4186f6b6457e060405160405180910390a360008060006101000a81548173ffffffffffffffffffffffffffffffffffffffff021916908373ffffffffffffffffffffffffffffffffffffffff160217905550565b60008060009054906101000a900473ffffffffffffffffffffffffffffffffffffffff16905090565b60008060009054906101000a900473ffffffffffffffffffffffffffffffffffffffff1673ffffffffffffffffffffffffffffffffffffffff163373ffffffffffffffffffffffffffffffffffffffff1614905090565b6003602052806000526040600020600091509050806000018054600181600116156101000203166002900480601f0160208091040260200160405190810160405280929190818152602001828054600181600116156101000203166002900480156113005780601f106112d557610100808354040283529160200191611300565b820191906000526020600020905b8154815290600101906020018083116112e357829003601f168201915b5050505050908060010160009054906101000a900473ffffffffffffffffffffffffffffffffffffffff16905082565b600082600154811015156113ac576040517f08c379a00000000000000000000000000000000000000000000000000000000081526004018080602001828103825260118152602001807f496420646f6573206e6f7420657869737400000000000000000000000000000081525060200191505060405180910390fd5b600360008473ffffffffffffffffffffffffffffffffffffffff1673ffffffffffffffffffffffffffffffffffffffff16815260200190815260200160002060020160008581526020019081526020016000205491505092915050565b6002602052806000526040600020600091509050806000018054600181600116156101000203166002900480601f0160208091040260200160405190810160405280929190818152602001828054600181600116156101000203166002900480156114b55780601f1061148a576101008083540402835291602001916114b5565b820191906000526020600020905b81548152906001019060200180831161149857829003601f168201915b5050505050908060010154908060020154905083565b60015481565b60008060149054906101000a900460ff1615151561157d576040517f08c379a00000000000000000000000000000000000000000000000000000000081526004018080602001828103825260308152602001807f5468697320616374696f6e206973206e6f7420616c6c6f77656420617320636f81526020017f6e74726163742069732066726f7a656e0000000000000000000000000000000081525060400191505060405180910390fd5b81600060026000838152602001908152602001600020600201549050600081340390503373ffffffffffffffffffffffffffffffffffffffff166108fc829081150290604051600060405180830381858888f193505050501580156115e6573d6000803e3d6000fd5b507fbed0142a4ddc0f9da2ce14c2105438b4ce6bcd9c383b9d7ce6c4bf616acf993d816040518082815260200191505060405180910390a18460015481101515611698576040517f08c379a00000000000000000000000000000000000000000000000000000000081526004018080602001828103825260118152602001807f496420646f6573206e6f7420657869737400000000000000000000000000000081525060200191505060405180910390fd5b6002600087815260200190815260200160002060020154803410151515611727576040517f08c379a00000000000000000000000000000000000000000000000000000000081526004018080602001828103825260178152602001807f55736572206861736e2774207061696420656e6f75676800000000000000000081525060200191505060405180910390fd5b6001600360003373ffffffffffffffffffffffffffffffffffffffff1673ffffffffffffffffffffffffffffffffffffffff16815260200190815260200160002060020160008981526020019081526020016000206000828254019250508190555033600360003373ffffffffffffffffffffffffffffffffffffffff1673ffffffffffffffffffffffffffffffffffffffff16815260200190815260200160002060010160006101000a81548173ffffffffffffffffffffffffffffffffffffffff021916908373ffffffffffffffffffffffffffffffffffffffff1602179055507f7f7e375fbeaef0d6ebfc53af15b7aeed1d704e3424f34ef67e914b1f68f8c8ef600360003373ffffffffffffffffffffffffffffffffffffffff1673ffffffffffffffffffffffffffffffffffffffff1681526020019081526020016000206002016000898152602001908152602001600020546040518082815260200191505060405180910390a1600195505050505050919050565b6118aa6111fd565b15156118b557600080fd5b6118be816118c1565b50565b600073ffffffffffffffffffffffffffffffffffffffff168173ffffffffffffffffffffffffffffffffffffffff16141515156118fd57600080fd5b8073ffffffffffffffffffffffffffffffffffffffff166000809054906101000a900473ffffffffffffffffffffffffffffffffffffffff1673ffffffffffffffffffffffffffffffffffffffff167f8be0079c531659141344cd1fd0a4f28419497f9722a3daafe3b4186f6b6457e060405160405180910390a3806000806101000a81548173ffffffffffffffffffffffffffffffffffffffff021916908373ffffffffffffffffffffffffffffffffffffffff16021790555050565b50805460018160011615610100020316600290046000825580601f106119e15750611a00565b601f0160209004906000526020600020908101906119ff9190611b03565b5b50565b828054600181600116156101000203166002900490600052602060002090601f016020900481019282601f10611a4457805160ff1916838001178555611a72565b82800160010185558215611a72579182015b82811115611a71578251825591602001919060010190611a56565b5b509050611a7f9190611b03565b5090565b828054600181600116156101000203166002900490600052602060002090601f016020900481019282601f10611ac457805160ff1916838001178555611af2565b82800160010185558215611af2579182015b82811115611af1578251825591602001919060010190611ad6565b5b509050611aff9190611b03565b5090565b611b2591905b80821115611b21576000816000905550600101611b09565b5090565b9056fea165627a7a72305820faf54a1be14ef931ca4c59e968fe2346cb396854712cc69984c6d87f5f92bc6d0029",
  "source": "pragma solidity ^0.5.0;\n\nimport \"./Ownable.sol\";\nimport \"./SafeMath.sol\";\n\n/** @title Coffee House */\ncontract CoffeeHouse is Ownable{\n    \n    // Freezing state of the contract\n    bool public frozen = false;\n    \n    // Structs\n    \n    // An item of coffee house\n    struct Item {\n        string name;\n        uint itemId;\n        uint price;\n    }\n\n    // A user\n    struct User {\n        string name;\n        address userAddress;\n        mapping(uint => uint) assets;\n    }\n    \n    // State vaiables\n    uint public itemsCount;\n\n    mapping(uint => Item) public items;\n\n    mapping(address => User) public users;\n    \n    mapping(address => bool) public registeredUsers;\n\n\n    // Function Modifiers\n    \n    // Check that the user is registered\n    modifier isRegistered() {require(registeredUsers[msg.sender], \"User not registered\"); _;}\n    \n    // Check that the user doesn't exist already\n    modifier notAlreadyRegistered() {require(!registeredUsers[msg.sender], \"User is already registered\"); _;}\n\n    modifier itemIdCheck(uint itemId) {require(itemId < itemsCount, \"Id does not exist\"); _;}\n\n    modifier paidEnough(uint _price) {require(msg.value >= _price, \"User hasn't paid enough\"); _;}\n\n    modifier checkValue(uint itemId) {\n        //refund them after pay for item (why it is before, _ checks for logic before func)\n        uint _price = items[itemId].price;\n        uint amountToRefund = msg.value - _price;\n        msg.sender.transfer(amountToRefund);\n        emit RefundAmount(amountToRefund);\n        _;\n    }\n    \n    // Modifiers in emergency\n    modifier stopInEmergency {require(!frozen, \"This action is not allowed as contract is frozen\"); _;}\n    modifier onlyInEmergency {require(frozen, \"This action is not allowed as this is only available in case of emergency\"); _;}\n    \n\n    // Events\n    event RefundAmount(uint amountToRefund);\n    event ItemBought(uint number);\n    event itemAdded(uint itemId);\n    event userCreated(address _address);\n    event userUpdated(address _address);\n    event userDeleted(address _address);\n    event toggleFreeze();\n\n\n    // constructor\n    constructor() public {}\n\n    /** @dev Add new item.\n      * @param _name name of the item.\n      * @param _price price of the item.\n      * @return status if the item was added successfully.\n      */\n    function addItem(string memory _name, uint _price)\n    public \n    onlyOwner()\n    stopInEmergency()\n    returns(bool)\n    {\n        items[itemsCount] = Item({name: _name, itemId: itemsCount, price: _price});\n        emit itemAdded(itemsCount);\n        itemsCount = itemsCount + 1;\n        return true;\n    }\n    \n\n    /** @dev Buy item.\n      * @param itemId id of the item.\n      * @return status if the item was bought successfully.\n      */\n    function buyItem(uint itemId)\n    public\n    payable\n    stopInEmergency()\n    checkValue(itemId)\n    itemIdCheck(itemId)\n    paidEnough(items[itemId].price)\n    // isRegistered()\n    returns(bool)\n    {\n        users[msg.sender].assets[itemId] += 1;\n        users[msg.sender].userAddress = msg.sender;\n        emit ItemBought(users[msg.sender].assets[itemId]);\n        return true;\n    }\n    \n    /** @dev Get assets count of user of a specefic item.\n      * @param itemId id of the item.\n      * @return number of items present.\n      */\n    function getAssetItemCount (uint itemId, address sender)\n    public\n    view\n    itemIdCheck(itemId)\n    returns(uint number)\n    {   \n        number = users[sender].assets[itemId];\n    }\n    \n    /** @dev Creates a new user.\n      * @param _name name of the user.\n      * @return status Whether the user was created.\n      */\n    function createUser(string memory _name)\n    public\n    stopInEmergency()\n    notAlreadyRegistered()  // Check that the user doesn't exist already\n    returns(bool)\n    {\n        // Create the user using the User struct\n        users[msg.sender] = User({\n            name: _name,\n            userAddress: msg.sender\n        });\n        \n        // Save the entry in registered users\n        registeredUsers[msg.sender] = true;\n        \n        // Emit the User created event\n        emit userCreated(msg.sender);\n\n        return registeredUsers[msg.sender];\n    }\n    \n    /** @dev Updates a user.\n      * @param _name new name of the user.\n      * @return status Whether the user was updated.\n      */\n    function updateUser(string memory _name)\n    public\n    stopInEmergency()\n    isRegistered()  // Check that the user doesn't exist already\n    returns(bool)\n    {\n        // Create the user using the User struct\n        users[msg.sender].name = _name;\n        \n        // Emit the User updated event\n        emit userUpdated(msg.sender);\n\n        return true;\n    }\n    \n    /** @dev A function to delete a user, can only be performed by the contract owner\n      * @return status Whether the user was deleted.\n      */\n    function deleteUser()\n    public\n    isRegistered() // Check if the user is registered\n    returns(bool status) {\n\n        // Remove the user\n        delete users[msg.sender];\n        registeredUsers[msg.sender] = false;\n\n        // Emit the user deleted event\n        emit userDeleted(msg.sender);\n\n        return true;\n    }\n    \n    /** @dev A function to flip the emergency status of this contract, useful when a bug is detected\n      * @return status Whether the frozen status was successfully split.\n      */\n    function flipFreeze()\n    private\n    onlyOwner()\n    returns(bool success) {\n        if(frozen) {\n            frozen = false;\n        } else frozen = true;\n        emit toggleFreeze();\n        return true;\n    }\n    \n    /** @dev A function to destroy the contract and transfer all funds to the owner\n      * @return status Whether the frozen status was successfully destroyed.\n      */\n    function kill()\n    private\n    onlyOwner()\n    returns(bool status) {\n        selfdestruct(msg.sender);\n        return true;\n    }\n}\n",
  "sourcePath": "/home/dipansh/Documents/Consensys/final-project-DipanshKhandelwal/contracts/CoffeeHouse.sol",
  "compiler": {
    "name": "solc",
    "version": "0.5.0+commit.1d4f565a.Emscripten.clang"
  },
  "schemaVersion": "3.0.1",
  "updatedAt": "2019-02-08T14:24:37.293Z",
  "devdoc": {
    "methods": {
      "addItem(string,uint256)": {
        "details": "Add new item.",
        "params": {
          "_name": "name of the item.",
          "_price": "price of the item."
        },
        "return": "status if the item was added successfully."
      },
      "buyItem(uint256)": {
        "details": "Buy item.",
        "params": {
          "itemId": "id of the item."
        },
        "return": "status if the item was bought successfully."
      },
      "createUser(string)": {
        "details": "Creates a new user.",
        "params": {
          "_name": "name of the user."
        },
        "return": "status Whether the user was created."
      },
      "deleteUser()": {
        "details": "A function to delete a user, can only be performed by the contract owner",
        "return": "status Whether the user was deleted."
      },
      "getAssetItemCount(uint256,address)": {
        "details": "Get assets count of user of a specefic item.",
        "params": {
          "itemId": "id of the item."
        },
        "return": "number of items present."
      },
      "isOwner()": {
        "return": "true if `msg.sender` is the owner of the contract."
      },
      "owner()": {
        "return": "the address of the owner."
      },
      "renounceOwnership()": {
        "details": "Allows the current owner to relinquish control of the contract."
      },
      "transferOwnership(address)": {
        "details": "Allows the current owner to transfer control of the contract to a newOwner.",
        "params": {
          "newOwner": "The address to transfer ownership to."
        }
      },
      "updateUser(string)": {
        "details": "Updates a user.",
        "params": {
          "_name": "new name of the user."
        },
        "return": "status Whether the user was updated."
      }
    },
    "title": "Coffee House "
  },
  "userdoc": {
    "methods": {
      "renounceOwnership()": {
        "notice": "Renouncing to ownership will leave the contract without an owner. It will not be possible to call the functions with the `onlyOwner` modifier anymore."
      }
    }
  }
}