{
  "contractName": "CoffeeHouse",
  "abi": [
    {
      "constant": true,
      "inputs": [],
      "name": "frozen",
      "outputs": [
        {
          "name": "",
          "type": "bool"
        }
      ],
      "payable": false,
      "stateMutability": "view",
      "type": "function",
      "signature": "0x054f7d9c"
    },
    {
      "constant": true,
      "inputs": [
        {
          "name": "",
          "type": "address"
        }
      ],
      "name": "registeredUsers",
      "outputs": [
        {
          "name": "",
          "type": "bool"
        }
      ],
      "payable": false,
      "stateMutability": "view",
      "type": "function",
      "signature": "0x0e50cee5"
    },
    {
      "constant": false,
      "inputs": [],
      "name": "renounceOwnership",
      "outputs": [],
      "payable": false,
      "stateMutability": "nonpayable",
      "type": "function",
      "signature": "0x715018a6"
    },
    {
      "constant": true,
      "inputs": [],
      "name": "owner",
      "outputs": [
        {
          "name": "",
          "type": "address"
        }
      ],
      "payable": false,
      "stateMutability": "view",
      "type": "function",
      "signature": "0x8da5cb5b"
    },
    {
      "constant": true,
      "inputs": [],
      "name": "isOwner",
      "outputs": [
        {
          "name": "",
          "type": "bool"
        }
      ],
      "payable": false,
      "stateMutability": "view",
      "type": "function",
      "signature": "0x8f32d59b"
    },
    {
      "constant": true,
      "inputs": [
        {
          "name": "",
          "type": "address"
        }
      ],
      "name": "users",
      "outputs": [
        {
          "name": "name",
          "type": "string"
        },
        {
          "name": "userAddress",
          "type": "address"
        }
      ],
      "payable": false,
      "stateMutability": "view",
      "type": "function",
      "signature": "0xa87430ba"
    },
    {
      "constant": true,
      "inputs": [
        {
          "name": "",
          "type": "uint256"
        }
      ],
      "name": "items",
      "outputs": [
        {
          "name": "name",
          "type": "string"
        },
        {
          "name": "itemId",
          "type": "uint256"
        },
        {
          "name": "price",
          "type": "uint256"
        }
      ],
      "payable": false,
      "stateMutability": "view",
      "type": "function",
      "signature": "0xbfb231d2"
    },
    {
      "constant": true,
      "inputs": [],
      "name": "itemsCount",
      "outputs": [
        {
          "name": "",
          "type": "uint256"
        }
      ],
      "payable": false,
      "stateMutability": "view",
      "type": "function",
      "signature": "0xe2c03ace"
    },
    {
      "constant": false,
      "inputs": [
        {
          "name": "newOwner",
          "type": "address"
        }
      ],
      "name": "transferOwnership",
      "outputs": [],
      "payable": false,
      "stateMutability": "nonpayable",
      "type": "function",
      "signature": "0xf2fde38b"
    },
    {
      "inputs": [],
      "payable": false,
      "stateMutability": "nonpayable",
      "type": "constructor",
      "signature": "constructor"
    },
    {
      "anonymous": false,
      "inputs": [
        {
          "indexed": false,
          "name": "amountToRefund",
          "type": "uint256"
        }
      ],
      "name": "RefundAmount",
      "type": "event",
      "signature": "0xbed0142a4ddc0f9da2ce14c2105438b4ce6bcd9c383b9d7ce6c4bf616acf993d"
    },
    {
      "anonymous": false,
      "inputs": [
        {
          "indexed": false,
          "name": "number",
          "type": "uint256"
        }
      ],
      "name": "ItemBought",
      "type": "event",
      "signature": "0x7f7e375fbeaef0d6ebfc53af15b7aeed1d704e3424f34ef67e914b1f68f8c8ef"
    },
    {
      "anonymous": false,
      "inputs": [
        {
          "indexed": false,
          "name": "itemId",
          "type": "uint256"
        }
      ],
      "name": "itemAdded",
      "type": "event",
      "signature": "0xd845909ec39afd39d384cbd1befad363d4d67cd9ee5853efbc65ca929044f7c5"
    },
    {
      "anonymous": false,
      "inputs": [
        {
          "indexed": false,
          "name": "_address",
          "type": "address"
        }
      ],
      "name": "userCreated",
      "type": "event",
      "signature": "0xa22187ec83aa1b90e4efbaa4f24ce6b70a007f97923b5878c0fb8026c2febe79"
    },
    {
      "anonymous": false,
      "inputs": [
        {
          "indexed": false,
          "name": "_address",
          "type": "address"
        }
      ],
      "name": "userDeleted",
      "type": "event",
      "signature": "0xc21b9cfcceff9f2d82efde7cd64d3fe7bfd7f14b9b0020ed54eb6ae56056e9ac"
    },
    {
      "anonymous": false,
      "inputs": [],
      "name": "toggleFreeze",
      "type": "event",
      "signature": "0x34fc2591fd4156473f33eff25bad9578d20b364af65e560c8a97cfe094abf5c6"
    },
    {
      "anonymous": false,
      "inputs": [
        {
          "indexed": true,
          "name": "previousOwner",
          "type": "address"
        },
        {
          "indexed": true,
          "name": "newOwner",
          "type": "address"
        }
      ],
      "name": "OwnershipTransferred",
      "type": "event",
      "signature": "0x8be0079c531659141344cd1fd0a4f28419497f9722a3daafe3b4186f6b6457e0"
    },
    {
      "constant": false,
      "inputs": [
        {
          "name": "_name",
          "type": "string"
        },
        {
          "name": "_price",
          "type": "uint256"
        }
      ],
      "name": "addItem",
      "outputs": [
        {
          "name": "",
          "type": "bool"
        }
      ],
      "payable": false,
      "stateMutability": "nonpayable",
      "type": "function",
      "signature": "0x62d6bbdf"
    },
    {
      "constant": false,
      "inputs": [
        {
          "name": "itemId",
          "type": "uint256"
        }
      ],
      "name": "buyItem",
      "outputs": [
        {
          "name": "",
          "type": "bool"
        }
      ],
      "payable": true,
      "stateMutability": "payable",
      "type": "function",
      "signature": "0xe7fb74c7"
    },
    {
      "constant": true,
      "inputs": [
        {
          "name": "itemId",
          "type": "uint256"
        }
      ],
      "name": "getAssetItemCount",
      "outputs": [
        {
          "name": "",
          "type": "uint256"
        }
      ],
      "payable": false,
      "stateMutability": "view",
      "type": "function",
      "signature": "0x9251040e"
    },
    {
      "constant": false,
      "inputs": [
        {
          "name": "_name",
          "type": "string"
        }
      ],
      "name": "createUser",
      "outputs": [
        {
          "name": "",
          "type": "bool"
        }
      ],
      "payable": false,
      "stateMutability": "nonpayable",
      "type": "function",
      "signature": "0x507ffba5"
    },
    {
      "constant": false,
      "inputs": [],
      "name": "deleteUser",
      "outputs": [
        {
          "name": "status",
          "type": "bool"
        }
      ],
      "payable": false,
      "stateMutability": "nonpayable",
      "type": "function",
      "signature": "0x026ff05e"
    }
  ],
  "bytecode": "0x608060405260008060146101000a81548160ff02191690831515021790555034801561002a57600080fd5b50336000806101000a81548173ffffffffffffffffffffffffffffffffffffffff021916908373ffffffffffffffffffffffffffffffffffffffff1602179055506000809054906101000a900473ffffffffffffffffffffffffffffffffffffffff1673ffffffffffffffffffffffffffffffffffffffff16600073ffffffffffffffffffffffffffffffffffffffff167f8be0079c531659141344cd1fd0a4f28419497f9722a3daafe3b4186f6b6457e060405160405180910390a36115f4806100f66000396000f3fe6080604052600436106100d0576000357c0100000000000000000000000000000000000000000000000000000000900463ffffffff168063026ff05e146100d5578063054f7d9c146101045780630e50cee514610133578063507ffba51461019c57806362d6bbdf1461027c578063715018a6146103665780638da5cb5b1461037d5780638f32d59b146103d45780639251040e14610403578063a87430ba14610452578063bfb231d21461054f578063e2c03ace14610611578063e7fb74c71461063c578063f2fde38b14610682575b600080fd5b3480156100e157600080fd5b506100ea6106d3565b604051808215151515815260200191505060405180910390f35b34801561011057600080fd5b50610119610868565b604051808215151515815260200191505060405180910390f35b34801561013f57600080fd5b506101826004803603602081101561015657600080fd5b81019080803573ffffffffffffffffffffffffffffffffffffffff16906020019092919050505061087b565b604051808215151515815260200191505060405180910390f35b3480156101a857600080fd5b50610262600480360360208110156101bf57600080fd5b81019080803590602001906401000000008111156101dc57600080fd5b8201836020820111156101ee57600080fd5b8035906020019184600183028401116401000000008311171561021057600080fd5b91908080601f016020809104026020016040519081016040528093929190818152602001838380828437600081840152601f19601f82011690508083019250505050505050919291929050505061089b565b604051808215151515815260200191505060405180910390f35b34801561028857600080fd5b5061034c6004803603604081101561029f57600080fd5b81019080803590602001906401000000008111156102bc57600080fd5b8201836020820111156102ce57600080fd5b803590602001918460018302840111640100000000831117156102f057600080fd5b91908080601f016020809104026020016040519081016040528093929190818152602001838380828437600081840152601f19601f82011690508083019250505050505050919291929080359060200190929190505050610be9565b604051808215151515815260200191505060405180910390f35b34801561037257600080fd5b5061037b610d5e565b005b34801561038957600080fd5b50610392610e30565b604051808273ffffffffffffffffffffffffffffffffffffffff1673ffffffffffffffffffffffffffffffffffffffff16815260200191505060405180910390f35b3480156103e057600080fd5b506103e9610e59565b604051808215151515815260200191505060405180910390f35b34801561040f57600080fd5b5061043c6004803603602081101561042657600080fd5b8101908080359060200190929190505050610eb0565b6040518082815260200191505060405180910390f35b34801561045e57600080fd5b506104a16004803603602081101561047557600080fd5b81019080803573ffffffffffffffffffffffffffffffffffffffff169060200190929190505050610f1f565b60405180806020018373ffffffffffffffffffffffffffffffffffffffff1673ffffffffffffffffffffffffffffffffffffffff168152602001828103825284818151815260200191508051906020019080838360005b838110156105135780820151818401526020810190506104f8565b50505050905090810190601f1680156105405780820380516001836020036101000a031916815260200191505b50935050505060405180910390f35b34801561055b57600080fd5b506105886004803603602081101561057257600080fd5b8101908080359060200190929190505050610ffb565b6040518080602001848152602001838152602001828103825285818151815260200191508051906020019080838360005b838110156105d45780820151818401526020810190506105b9565b50505050905090810190601f1680156106015780820380516001836020036101000a031916815260200191505b5094505050505060405180910390f35b34801561061d57600080fd5b506106266110bd565b6040518082815260200191505060405180910390f35b6106686004803603602081101561065257600080fd5b81019080803590602001909291905050506110c3565b604051808215151515815260200191505060405180910390f35b34801561068e57600080fd5b506106d1600480360360208110156106a557600080fd5b81019080803573ffffffffffffffffffffffffffffffffffffffff1690602001909291905050506113c2565b005b6000600460003373ffffffffffffffffffffffffffffffffffffffff1673ffffffffffffffffffffffffffffffffffffffff16815260200190815260200160002060009054906101000a900460ff16151561072d57600080fd5b600360003373ffffffffffffffffffffffffffffffffffffffff1673ffffffffffffffffffffffffffffffffffffffff1681526020019081526020016000206000808201600061077d91906114db565b6001820160006101000a81549073ffffffffffffffffffffffffffffffffffffffff021916905550506000600460003373ffffffffffffffffffffffffffffffffffffffff1673ffffffffffffffffffffffffffffffffffffffff16815260200190815260200160002060006101000a81548160ff0219169083151502179055507fc21b9cfcceff9f2d82efde7cd64d3fe7bfd7f14b9b0020ed54eb6ae56056e9ac33604051808273ffffffffffffffffffffffffffffffffffffffff1673ffffffffffffffffffffffffffffffffffffffff16815260200191505060405180910390a16001905090565b600060149054906101000a900460ff1681565b60046020528060005260406000206000915054906101000a900460ff1681565b60008060149054906101000a900460ff16151515610947576040517f08c379a00000000000000000000000000000000000000000000000000000000081526004018080602001828103825260308152602001807f5468697320616374696f6e206973206e6f7420616c6c6f77656420617320636f81526020017f6e74726163742069732066726f7a656e0000000000000000000000000000000081525060400191505060405180910390fd5b600460003373ffffffffffffffffffffffffffffffffffffffff1673ffffffffffffffffffffffffffffffffffffffff16815260200190815260200160002060009054906101000a900460ff16151515610a09576040517f08c379a000000000000000000000000000000000000000000000000000000000815260040180806020018281038252601a8152602001807f5573657220697320616c7265616479207265676973746572656400000000000081525060200191505060405180910390fd5b60408051908101604052808381526020013373ffffffffffffffffffffffffffffffffffffffff16815250600360003373ffffffffffffffffffffffffffffffffffffffff1673ffffffffffffffffffffffffffffffffffffffff1681526020019081526020016000206000820151816000019080519060200190610a8f929190611523565b5060208201518160010160006101000a81548173ffffffffffffffffffffffffffffffffffffffff021916908373ffffffffffffffffffffffffffffffffffffffff1602179055509050506001600460003373ffffffffffffffffffffffffffffffffffffffff1673ffffffffffffffffffffffffffffffffffffffff16815260200190815260200160002060006101000a81548160ff0219169083151502179055507fa22187ec83aa1b90e4efbaa4f24ce6b70a007f97923b5878c0fb8026c2febe7933604051808273ffffffffffffffffffffffffffffffffffffffff1673ffffffffffffffffffffffffffffffffffffffff16815260200191505060405180910390a1600460003373ffffffffffffffffffffffffffffffffffffffff1673ffffffffffffffffffffffffffffffffffffffff16815260200190815260200160002060009054906101000a900460ff169050919050565b6000610bf3610e59565b1515610bfe57600080fd5b600060149054906101000a900460ff16151515610ca9576040517f08c379a00000000000000000000000000000000000000000000000000000000081526004018080602001828103825260308152602001807f5468697320616374696f6e206973206e6f7420616c6c6f77656420617320636f81526020017f6e74726163742069732066726f7a656e0000000000000000000000000000000081525060400191505060405180910390fd5b6060604051908101604052808481526020016001548152602001838152506002600060015481526020019081526020016000206000820151816000019080519060200190610cf8929190611523565b5060208201518160010155604082015181600201559050507fd845909ec39afd39d384cbd1befad363d4d67cd9ee5853efbc65ca929044f7c56001546040518082815260200191505060405180910390a160018054016001819055506001905092915050565b610d66610e59565b1515610d7157600080fd5b600073ffffffffffffffffffffffffffffffffffffffff166000809054906101000a900473ffffffffffffffffffffffffffffffffffffffff1673ffffffffffffffffffffffffffffffffffffffff167f8be0079c531659141344cd1fd0a4f28419497f9722a3daafe3b4186f6b6457e060405160405180910390a360008060006101000a81548173ffffffffffffffffffffffffffffffffffffffff021916908373ffffffffffffffffffffffffffffffffffffffff160217905550565b60008060009054906101000a900473ffffffffffffffffffffffffffffffffffffffff16905090565b60008060009054906101000a900473ffffffffffffffffffffffffffffffffffffffff1673ffffffffffffffffffffffffffffffffffffffff163373ffffffffffffffffffffffffffffffffffffffff1614905090565b60008160015481101515610ec357600080fd5b600360003373ffffffffffffffffffffffffffffffffffffffff1673ffffffffffffffffffffffffffffffffffffffff168152602001908152602001600020600201600084815260200190815260200160002054915050919050565b6003602052806000526040600020600091509050806000018054600181600116156101000203166002900480601f016020809104026020016040519081016040528092919081815260200182805460018160011615610100020316600290048015610fcb5780601f10610fa057610100808354040283529160200191610fcb565b820191906000526020600020905b815481529060010190602001808311610fae57829003601f168201915b5050505050908060010160009054906101000a900473ffffffffffffffffffffffffffffffffffffffff16905082565b6002602052806000526040600020600091509050806000018054600181600116156101000203166002900480601f0160208091040260200160405190810160405280929190818152602001828054600181600116156101000203166002900480156110a75780601f1061107c576101008083540402835291602001916110a7565b820191906000526020600020905b81548152906001019060200180831161108a57829003601f168201915b5050505050908060010154908060020154905083565b60015481565b60008060149054906101000a900460ff1615151561116f576040517f08c379a00000000000000000000000000000000000000000000000000000000081526004018080602001828103825260308152602001807f5468697320616374696f6e206973206e6f7420616c6c6f77656420617320636f81526020017f6e74726163742069732066726f7a656e0000000000000000000000000000000081525060400191505060405180910390fd5b81600060026000838152602001908152602001600020600201549050600081340390503373ffffffffffffffffffffffffffffffffffffffff166108fc829081150290604051600060405180830381858888f193505050501580156111d8573d6000803e3d6000fd5b507fbed0142a4ddc0f9da2ce14c2105438b4ce6bcd9c383b9d7ce6c4bf616acf993d816040518082815260200191505060405180910390a1846001548110151561122157600080fd5b600260008781526020019081526020016000206002015480341015151561124757600080fd5b6001600360003373ffffffffffffffffffffffffffffffffffffffff1673ffffffffffffffffffffffffffffffffffffffff16815260200190815260200160002060020160008981526020019081526020016000206000828254019250508190555033600360003373ffffffffffffffffffffffffffffffffffffffff1673ffffffffffffffffffffffffffffffffffffffff16815260200190815260200160002060010160006101000a81548173ffffffffffffffffffffffffffffffffffffffff021916908373ffffffffffffffffffffffffffffffffffffffff1602179055507f7f7e375fbeaef0d6ebfc53af15b7aeed1d704e3424f34ef67e914b1f68f8c8ef600360003373ffffffffffffffffffffffffffffffffffffffff1673ffffffffffffffffffffffffffffffffffffffff1681526020019081526020016000206002016000898152602001908152602001600020546040518082815260200191505060405180910390a1600195505050505050919050565b6113ca610e59565b15156113d557600080fd5b6113de816113e1565b50565b600073ffffffffffffffffffffffffffffffffffffffff168173ffffffffffffffffffffffffffffffffffffffff161415151561141d57600080fd5b8073ffffffffffffffffffffffffffffffffffffffff166000809054906101000a900473ffffffffffffffffffffffffffffffffffffffff1673ffffffffffffffffffffffffffffffffffffffff167f8be0079c531659141344cd1fd0a4f28419497f9722a3daafe3b4186f6b6457e060405160405180910390a3806000806101000a81548173ffffffffffffffffffffffffffffffffffffffff021916908373ffffffffffffffffffffffffffffffffffffffff16021790555050565b50805460018160011615610100020316600290046000825580601f106115015750611520565b601f01602090049060005260206000209081019061151f91906115a3565b5b50565b828054600181600116156101000203166002900490600052602060002090601f016020900481019282601f1061156457805160ff1916838001178555611592565b82800160010185558215611592579182015b82811115611591578251825591602001919060010190611576565b5b50905061159f91906115a3565b5090565b6115c591905b808211156115c15760008160009055506001016115a9565b5090565b9056fea165627a7a72305820736a1cd6e564f1e0c11a2d597759ee9ddefc614f2a4d32be7d6c1f4519098d260029",
  "source": "pragma solidity ^0.5.0;\n\nimport \"./Ownable.sol\";\nimport \"./SafeMath.sol\";\n\n/** @title Coffee House */\ncontract CoffeeHouse is Ownable{\n    \n    // Freezing state of the contract\n    bool public frozen = false;\n    \n    // Structs\n    \n    // An item of coffee house\n    struct Item {\n        string name;\n        uint itemId;\n        uint price;\n    }\n\n    // A user\n    struct User {\n        string name;\n        address userAddress;\n        mapping(uint => uint) assets;\n    }\n    \n    // State vaiables\n    uint public itemsCount;\n\n    mapping(uint => Item) public items;\n\n    mapping(address => User) public users;\n    \n    mapping(address => bool) public registeredUsers;\n\n\n    // Function Modifiers\n    \n    // Check that the user is registered\n    modifier isRegistered() { require(registeredUsers[msg.sender]); _;}\n    \n    // Check that the user doesn't exist already\n    modifier notAlreadyRegistered() { require(!registeredUsers[msg.sender], \"User is already registered\"); _;}\n\n    // modifier itemPresent(uint itemId) { require( bytes(items[itemId].name).length != 0  ); _;}\n\n    modifier itemIdCheck(uint itemId) { require( itemId < itemsCount ); _;}\n\n    modifier paidEnough(uint _price) { require(msg.value >= _price); _;}\n\n    modifier checkValue(uint itemId) {\n        //refund them after pay for item (why it is before, _ checks for logic before func)\n        uint _price = items[itemId].price;\n        uint amountToRefund = msg.value - _price;\n        msg.sender.transfer(amountToRefund);\n        emit RefundAmount(amountToRefund);\n        _;\n    }\n    \n    // Modifiers in emergency\n    modifier stopInEmergency {require(!frozen, \"This action is not allowed as contract is frozen\"); _; }\n    modifier onlyInEmergency {require(frozen, \"This action is not allowed as this is only available in case of emergency\"); _; }\n    \n\n    // Events\n    event RefundAmount(uint amountToRefund);\n    event ItemBought(uint number);\n    event itemAdded(uint itemId);\n    event userCreated(address _address);\n    event userDeleted(address _address);\n    event toggleFreeze();\n\n\n    // constructor\n    constructor() public {}\n    \n    function hashCompareWithLengthCheck(string memory a, string memory b)\n    internal\n    pure\n    returns (bool) {\n        if(bytes(a).length != bytes(b).length) {\n            return false;\n        } else {\n            return keccak256(bytes(a)) == keccak256(bytes(b));\n        }\n    }\n    \n    /** @dev Add new item.\n      * @param _name name of the item.\n      * @param _price price of the item.\n      * @return status if the item was added successfully.\n      */\n    function addItem(string memory _name, uint _price)\n    public \n    onlyOwner()\n    stopInEmergency()\n    returns(bool)\n    {\n        items[itemsCount] = Item({name: _name, itemId: itemsCount, price: _price});\n        emit itemAdded(itemsCount);\n        itemsCount = itemsCount + 1;\n        return true;\n    }\n    \n\n    /** @dev Buy item.\n      * @param itemId id of the item.\n      * @return status if the item was bought successfully.\n      */\n    function buyItem(uint itemId)\n    public\n    payable\n    stopInEmergency()\n    checkValue(itemId)\n    // itemPresent(itemId)\n    itemIdCheck(itemId)\n    paidEnough(items[itemId].price)\n    // isRegistered()\n    returns(bool)\n    {\n        users[msg.sender].assets[itemId] += 1;\n        users[msg.sender].userAddress = msg.sender;\n        emit ItemBought(users[msg.sender].assets[itemId]);\n        return true;\n    }\n    \n    /** @dev Get assets count of user of a specefic item.\n      * @param itemId id of the item.\n      * @return number of items present.\n      */\n    function getAssetItemCount (uint itemId)\n    view\n    public\n    itemIdCheck(itemId)\n    returns(uint)\n    {\n        return users[msg.sender].assets[itemId];\n    }\n    \n    /** @dev Creates a new user.\n      * @param _name name of the user.\n      * @return status Whether the user was created.\n      */\n    function createUser(string memory _name)\n    public\n    stopInEmergency()\n    notAlreadyRegistered()  // Check that the user doesn't exist already\n    returns(bool)\n    {\n        // Create the user using the User struct\n        users[msg.sender] = User({\n            name: _name,\n            userAddress: msg.sender\n        });\n        \n        // Save the entry in registered users\n        registeredUsers[msg.sender] = true;\n        \n        // Emit the User created event\n        emit userCreated(msg.sender);\n\n        return registeredUsers[msg.sender];\n    }    \n    \n    /** @dev A function to delete a user, can only be performed by the contract owner\n      * @return status Whether the user was deleted.\n      */\n    function deleteUser()\n    public\n    isRegistered() // Check if the user is registered\n    returns(bool status) {\n\n        // Remove the user\n        delete users[msg.sender];\n        registeredUsers[msg.sender] = false;\n\n        // Emit the user deleted event\n        emit userDeleted(msg.sender);\n\n        return true;\n    }\n    \n    /** @dev A function to flip the emergency status of this contract, useful when a bug is detected\n      * @return status Whether the frozen status was successfully split.\n      */\n    function flipFreeze()\n    private\n    onlyOwner()\n    returns(bool success) {\n        if(frozen) {\n            frozen = false;\n        } else frozen = true;\n        emit toggleFreeze();\n        return true;\n    }\n    \n    /** @dev A function to destroy the contract and transfer all funds to the owner\n      * @return status Whether the frozen status was successfully destroyed.\n      */\n    function kill()\n    private\n    onlyOwner()\n    returns(bool status) {\n        selfdestruct(msg.sender);\n        return true;\n    }\n}\n",
  "sourcePath": "/home/dipansh/Documents/Consensys/final-project-DipanshKhandelwal/contracts/CoffeeHouse.sol",
  "compiler": {
    "name": "solc",
    "version": "0.5.0+commit.1d4f565a.Emscripten.clang"
  },
  "schemaVersion": "3.0.1",
  "updatedAt": "2019-01-28T07:36:24.563Z",
  "devdoc": {
    "methods": {
      "addItem(string,uint256)": {
        "details": "Add new item.",
        "params": {
          "_name": "name of the item.",
          "_price": "price of the item."
        },
        "return": "status if the item was added successfully."
      },
      "buyItem(uint256)": {
        "details": "Buy item.",
        "params": {
          "itemId": "id of the item."
        },
        "return": "status if the item was bought successfully."
      },
      "createUser(string)": {
        "details": "Creates a new user.",
        "params": {
          "_name": "name of the user."
        },
        "return": "status Whether the user was created."
      },
      "deleteUser()": {
        "details": "A function to delete a user, can only be performed by the contract owner",
        "return": "status Whether the user was deleted."
      },
      "getAssetItemCount(uint256)": {
        "details": "Get assets count of user of a specefic item.",
        "params": {
          "itemId": "id of the item."
        },
        "return": "number of items present."
      },
      "isOwner()": {
        "return": "true if `msg.sender` is the owner of the contract."
      },
      "owner()": {
        "return": "the address of the owner."
      },
      "renounceOwnership()": {
        "details": "Allows the current owner to relinquish control of the contract."
      },
      "transferOwnership(address)": {
        "details": "Allows the current owner to transfer control of the contract to a newOwner.",
        "params": {
          "newOwner": "The address to transfer ownership to."
        }
      }
    },
    "title": "Coffee House "
  },
  "userdoc": {
    "methods": {
      "renounceOwnership()": {
        "notice": "Renouncing to ownership will leave the contract without an owner. It will not be possible to call the functions with the `onlyOwner` modifier anymore."
      }
    }
  }
}